:020000040800F2
:1000000070040020ED010008F1010008F301000870
:10001000F5010008F7010008F901000800000000E0
:10002000000000000000000000000000FB010008CC
:10003000FD01000800000000FF01000801020008A7
:10004000030200080302000803020008030200087C
:10005000030200080302000803020008030200086C
:10006000030200080302000803020008030200085C
:10007000030200080302000803020008030200084C
:10008000030200080302000803020008030200083C
:10009000030200080302000803020008030200082C
:1000A000030200080302000803020008030200081C
:1000B000030200080302000803020008030200080C
:1000C00003020008030200080302000803020008FC
:1000D00003020008030200080302000803020008EC
:1000E00003020008030200080302000803020008DC
:1000F00003020008030200080302000803020008CC
:1001000003020008030200080302000803020008BB
:1001100003020008030200080302000803020008AB
:10012000030200080302000803020008030200089B
:10013000030200080302000803020008030200088B
:10014000030200080302000803020008030200087B
:10015000030200080302000803020008030200086B
:10016000030200080302000803020008030200085B
:100170000302000803020008000000000302000858
:10018000030200080302000803020008030200083B
:100190000302000803020008000000000302000838
:1001A0000302000803020008000000000000000035
:1001B0000302000800000000000000000302000825
:1001C00003020008030200080302000803020008FB
:1001D0000302000803020008DFF80CD000F014FA54
:1001E0000048004725090008700400200548004722
:1001F000FEE7FEE7FEE7FEE7FEE7FEE7FEE7FEE7D7
:10020000FEE7FEE7D901000830B50B4601460020A5
:100210002022012409E021FA02F59D4205D303FAC8
:1002200002F5491B04FA02F52844151EA2F1010249
:10023000F1DC30BD2DE9F05F0546002092469B467B
:1002400088460646814640241BE0284641464746EC
:10025000224600F0FAF953465A46C01A914110D38B
:1002600011461846224600F0E1F92D1A67EB010805
:100270004F4622460120002100F0D8F917EB000973
:100280004E41201EA4F10104DFDC484631462A46D7
:100290004346BDE8F09F2DE9FE4F804681EA03000A
:1002A000C00F0C46009021F0004123F00045B8EB50
:1002B0000200A94105D24046214690461C460B4605
:1002C000024623F00040104347D0270DC7F30A0031
:1002D000C3F30A510290401A019040286BDAC3F32D
:1002E000130040F4801B0098924620B10023D2EB0B
:1002F000030A63EB0B0B01985946C0F140025046CC
:1003000000F094F906460D4650465946019A00F011
:10031000ACF910EB08006141002487EA115284EA2D
:10032000E7731A4340D0009A62B3019A012A4FEA58
:10033000075215DC001B61EB02014FF0004202EA9C
:100340000752CDE90042001C41F5801132462B4690
:1003500000F0ACF903B0BDE8F08F40462146F9E764
:10036000001B61EB0201001C41F5801300185B418A
:100370002018A2F5001747EB030140EAD570B61923
:100380006D4111E06D084FEA360645EAC0754FEA47
:100390000752001B61EB0201001C41F58011490866
:1003A0004FEA30000019514132462B4603B0BDE8F8
:1003B000F04F00F06CB90098012240000023D0EB10
:1003C000020263EBE073009821464FEAE074B8EB59
:1003D000000061EB0401E9E783F000435BE781F093
:1003E000004158E72DE9FE4F81EA030404F0004480
:1003F00021F0004100944FF0000B23F0004350EA3D
:1004000001045ED052EA03045BD0C3F30A54C1F383
:100410000A552C44A4F2F3340194A0FB0254C1F316
:10042000130141F48011C3F3130343F4801301FB60
:10043000024400FB034E840A970A44EA815447EAC7
:100440008357A4FB076802958D0A05FB07854FEAD1
:10045000932C04FB0C542705029D4FEA065847EAEB
:100460001637B5EB08056EEB070C870E920E47EAC0
:10047000811742EA8312A7FB0201B6EB0B0164EB82
:1004800000042B0D43EA0C335E1844EB1C50DA4693
:100490005146E7FB0201C5F313044FEA0B3343EA6D
:1004A00014534FEA0432019C43EA0603A4F10C04FE
:1004B0000294009CCDE900B400F0F8F803B0BDE868
:1004C000F08F00200146F9E72DE9F04D81EA0304A1
:1004D00004F0004B21F0004514464FF0000A23F0D1
:1004E000004150EA050220D054EA01021DD0C5F3B4
:1004F0000A570246C5F31303C1F31300C1F30A56AA
:1005000040F4801543F48013A7EB0608101BD64671
:1005100008F2FD3873EB050002D308F1010801E091
:1005200092185B41B8F1000F03DA00200146BDE8E4
:10053000F08D00204FF48011064684460EE0171B14
:1005400073EB050705D3121B63EB050306434CEA67
:10055000010C49084FEA300092185B4150EA01074C
:10056000EDD152EA030012D082EA040083EA0501C9
:10057000084305D0101BAB4106D20122002306E040
:1005800000224FF0004302E06FF0010253101AEB1B
:1005900006004CEB085110EB0A0041EB0B01BDE8E3
:1005A000F04D00F074B8C1F30A52C1F3130140F2E8
:1005B000FF3341F480119A4202DA0020014670476D
:1005C00040F233439A42A2F2334202DC524200F03C
:1005D0003CB800F02BB8000030B5041E71F10004E7
:1005E00004DB4FF00044404264EB0101141E73F140
:1005F000000405DB1C464FF00043524263EB04034A
:10060000994208BF904230BD064C074D06E0E068B5
:1006100040F0010394E8070098471034AC42F6D349
:10062000FFF7DEFD4817000868170008202A04DBE2
:10063000203A00FA02F1002070479140C2F12003F5
:1006400020FA03F3194390407047202A04DB203A34
:1006500021FA02F00021704721FA02F3D040C2F1E2
:1006600020029140084319467047202A06DBCB1729
:10067000203A41FA02F043EAE07306E041FA02F35D
:10068000D040C2F12002914008431946704710B58E
:10069000141E73F1000408DA401C41F100019218A5
:1006A0005B411A4301D120F0010010BD2DE9F04D4E
:1006B00092469B4611B1B1FA81F202E0B0FA80F2A3
:1006C00020329046FFF7B2FF04460F4640EA0A0088
:1006D00041EA0B0153465A46084313D0114653EAE8
:1006E000010019D0C8F140025046FFF7AEFF0546A1
:1006F0000E46504659464246FFF798FF084305D03C
:10070000012004E020463946BDE8F08D0020054375
:1007100046EAE0762C4337430A986305E40AA0EBE7
:1007200008000022FD0A44EA47540A3002D500209E
:100730000146E9E7010510196941DDE9084500199D
:100740006941BDE8F04DA2E780B541F22D70C0F6D9
:10075000000000F047F980BD80B541F20E70C0F690
:10076000000000F03FF980BD80B582B041F27050CA
:10077000C0F6000000F036F941F20D50C0F600005E
:1007800000F030F941F2C440C0F6000000F02AF950
:1007900041F20B70C0F6000000F024F9FFE741F2CF
:1007A0000000C4F2010000788006002801D4FFE7B1
:1007B000F5E741F20400C4F2010000688DF807007B
:1007C0009DF80700612825D1FFE740F20000C2F242
:1007D00000000068102807D1FFE741F27D60C0F6F5
:1007E000000000F0FFF814E041F20A60C0F60000DB
:1007F00000F0F8F800F06EF940F20000C2F20000DC
:100800001021016041F26760C0F6000000F0EAF8D4
:10081000FFE731E09DF80700622825D1FFE740F2AD
:100820000000C2F200000068642807D1FFE741F22F
:100830009250C0F6000000F0D5F814E041F2BA5032
:10084000C0F6000000F0CEF800F0DEF840F2000044
:10085000C2F200006421016041F29B60C0F600001A
:1008600000F0C0F8FFE706E041F23060C0F600009B
:1008700000F0B8F8FFE7FFE702B080BD43F63000B4
:10088000C4F20200016841F00101016043F640003A
:10089000C4F2020001680022C1F2020211430160A9
:1008A00043F64400C4F20200016848F2100211430A
:1008B000016047F20000C4F20000016841F44041C9
:1008C00001600020C4F20200016821F4701101608F
:1008D000016841F4201101600C20C4F2020001689B
:1008E00021F470110160016841F4A011016024201D
:1008F000C4F20200016821F47F610160016841F4E3
:10090000EE61016041F20800C4F2010040F283612F
:10091000016041F20C00C4F2010042F20C010160DE
:100920007047000080B584B000200390FFF7A6FF59
:1009300041F22F50C0F6000000F054F8FFE700F03D
:1009400007F9FFE741F20000C4F2010000788006D9
:10095000002801D4FFE7F5E741F20400C4F20100EA
:1009600000688DF80B009DF80B00014631280191BD
:1009700008D0FFE7019832280DD0FFE7019833280F
:100980000CD00EE041F2E850C0F6000000F02AF86A
:10099000FFF7EAFE0CE0FFF7DFFE09E0FFF7D4FE09
:1009A00006E041F24960C0F6000000F01BF8FFE7E6
:1009B000C5E7000081B001468DF80300FFE741F272
:1009C0000000C4F2010000780006002801D4FFE70F
:1009D000F5E79DF8030041F20401C4F2010108604B
:1009E00001B0704780B582B00190FFE701980078B0
:1009F000002807D0FFE70198411C01910078FFF71C
:100A0000D9FFF3E702B080BD81B041F20C00C4F21F
:100A100001000021016043F60040C4F2020040F2F0
:100A20000471016043F60400C4F2020042F61001B2
:100A3000C0F20021016043F60000C4F20200016828
:100A400041F080710160FFE743F60300C4F2020049
:100A500000788007002801D4FFE7F5E743F6080097
:100A6000C4F20200016841F480510160016821F084
:100A700003010160016841F002010160FFE743F6F4
:100A80000800C4F20200006800F00C00082801D041
:100A9000FFE7F4E700200090FFE7009840F63F51A1
:100AA000C0F20301884205DCFFE7FFE70098013050
:100AB0000090F2E741F20800C4F2010042F28D0119
:100AC000016041F20C00C4F2010042F20C0101602D
:100AD00001B0704741F20C00C4F201000021016036
:100AE00043F60800C4F20200016821F0030101602E
:100AF000FFE743F60800C4F20200007810F00C0F84
:100B000001D0FFE7F5E743F60000C4F202000168F8
:100B100021F08071016043F60040C4F20200002120
:100B2000016043F60800C4F20200016821F4E051BC
:100B3000016041F20800C4F2010040F283610160EB
:100B400041F20C00C4F2010042F20C010160704756
:100B500080B582B041F25550C0F60000FFF742FF69
:100B600040F20000C2F20000026840F20800C2F247
:100B7000000041F2E161C0F60001019000F020F8B0
:100B8000019900900846FFF72DFF41F2E840C0F6BA
:100B90000000FFF727FF41F2D060C0F60000FFF72A
:100BA00021FF41F2BF60C0F60000FFF71BFF41F2DA
:100BB000F960C0F60000FFF715FF02B080BD00002D
:100BC0000FB4084B10B504A902AA039800F0DEF890
:100BD000044602A9002000F070FC204610BC5DF81D
:100BE00014FB0000BB14000802E008C8121F08C173
:100BF000002AFAD170477047002001E001C1121F9E
:100C0000002AFBD1704700002DE9FF5F82B0002170
:100C1000DDE90430020DDDF840B0034318D044F69E
:100C20001050A2F2FF3242431514119801281FD030
:100C3000A5EB0B00401C5FEA000A4FF000064E4F88
:100C4000DFF83891B046504615D5CAF1000413E0DC
:100C5000119801244AA3012801D16FEA0B010298DF
:100C6000119AC0E90031C0E9024206B0BDE8F09F28
:100C7000CBF10000DFE704460021404A491842EB6F
:100C80000450CDE9001012E0E00707D032463B46A1
:100C900040464946FFF7A6FB8046894632463B461A
:100CA00010461946FFF79EFB06460F466410002CBF
:100CB000EAD1DDE90401DDE90023BAF1000F06DA2B
:100CC000FFF790FB42464B46FFF78CFB05E0FFF732
:100CD000FBFB42464B46FFF7F7FB04460E4600225D
:100CE000284BFFF779FC03D84FF0FF30014607E0AF
:100CF0000022254B20463146FFF7CDFAFFF753FC83
:100D0000102409E0002C0ADB0A220023FFF792FAE4
:100D1000039B30321A55641E50EA0102F2D1641C62
:100D2000039AC4F111031444119A012A03D0012239
:100D300008430DD10AE0084304D000204FF0110B06
:100D4000119072E7A3EB0B056D1E0DE05B4504DD12
:100D50004FF0000205F1010504E003DA4FF0000254
:100D6000A5F10105002AECD002981199C0E90231E1
:100D7000C0E9004579E70000000014400000F03FA2
:100D8000300000000000F0430000E03F2DE9FF4F7D
:100D900095B09B468946064600250FE2252877D167
:100DA00000242746F84A0121059400E0044316F880
:100DB000013F203B01FA03F01042F7D130782A2896
:100DC00011D06FF02F033078A0F13002092A16D825
:100DD000059A44F0020402EB820203EB4202104443
:100DE000761C0590EFE759F8042B0592002A03DAE8
:100DF000504244F40054059044F00204761C3078CC
:100E00002E2816D116F8010F44F004042A280DD01C
:100E10006FF02F023078A0F13003092B09D807EBCF
:100E2000870302EB4303C718761CF3E759F8047BEA
:100E3000761C30786C280FD006DC4C2817D0682838
:100E40000DD06A2814D104E0742810D07A280FD16C
:100E50000DE044F400140AE044F4801401E044F48A
:100E600040147278824202D104F58014761C761CFC
:100E7000307866280BD013DC582877D009DC00289E
:100E800075D04528F6D04628F4D047281AD19DE1E0
:100E900018E0632835D0642879D0652812D195E10F
:100EA000702873D008DC6728F1D069286FD06E28CD
:100EB0000DD06F2806D1B5E073282CD0752875D0D9
:100EC000782874D05A46179990476D1C75E1C4F381
:100ED0000250022809D003280DD0D9F800100428A8
:100EE0000DD00D6009F1040967E1D9F80010EA1787
:100EF000C1E90052F6E7D9F800100D80F2E70D7055
:100F0000F0E719F8041B8DF8001000208DF801009F
:100F1000EA46012003E059F804AB4FF0FF306107C7
:100F20004FF0000102D40DE008F101018846B942FA
:100F30000FDA8045F8DB1AF808100029F4D108E030
:100F400008F1010188468142FADB1AF808100029ED
:100F5000F6D105985B46A0EB080721463846179A5C
:100F600000F094FA284400EB080507E04DE029E181
:100F70000DE01AF8010B5A4617999047B8F101088D
:100F8000F7D25B4621463846179A13E142E00A221F
:100F90000092C4F302524FF0000A022A08D059F816
:100FA00004CB032A4FEAEC710AD00DE029E02AE0D5
:100FB00009F1070121F00702F2E802C1914609E0B8
:100FC0000FFA8CFC4FEAEC71042A03D14FFA8CFC27
:100FD0004FEAEC71002907DA0A460021DCF1000C27
:100FE00061EB02012D2202E0220504D52B228DF8AF
:100FF0000420012203E0E20701D02022F7E7904617
:1010000059E00A2102E010220DE010214FF0000A01
:1010100000910BE010224FF0000A44F0040408276E
:10102000009203E008224FF0000A0092C4F302523B
:10103000022A05D059F804CB0021032A08D009E080
:1010400009F1070121F00702F2E802C1914605E02B
:101050001FFA8CFC042A01D10CF0FF0C4FF00008A1
:10106000220728D5702806D0009B83F0100353EA8E
:101070000A0305D00EE040228DF80420012208E08A
:101080005CEA010206D030228DF804208DF80500BC
:1010900002229046009B83F0080353EA0A030AD118
:1010A0005CEA010201D1620705D530228DF80420E7
:1010B0004FF001087F1E582804D034A003900EA8DA
:1010C00002900DE036A0F9E753466046009AFFF71C
:1010D000B1F884460398825C0298401E0290027028
:1010E0005CEA0100F0D1029806A9081A00F1200A72
:1010F000600702D524F4803400E00127574502DD63
:10110000A7EB0A0000E0002000EB0A010090059820
:101110004144401A0590E00306D45B462146179AE5
:10112000059800F0B3F90544002706E001A85A46E7
:10113000C05D179990476D1C7F1C4745F6DBE003A7
:101140000CD55B462146179A059800F09FF9054497
:1011500004E030205A46179990476D1C0099481EAC
:1011600000900029F5DC08E0029802995A460078C0
:10117000491C0291179990476D1CBAF10001AAF120
:10118000010AF1DC65E10000092801003031323349
:1011900034353637383961626364656600000000B3
:1011A000303132333435363738394142434445469D
:1011B0000000000000F058F90544761C3078002843
:1011C0007FF4ECAD19B02846BDE8F08F620700D47B
:1011D000062709F1070222F0070CFCE80223E1468A
:1011E00003F000485FEA080C02D00FF2702C0DE00B
:1011F0005FEA045C02D50FF2682C07E05FEAC47C6A
:1012000002D00FF2602C01E0AFF2700C4FF0FF380B
:1012100023F00043CDF850C065280CD006DC4528EB
:1012200009D046281DD047283DD13DE0662818D07A
:1012300067287ED138E00021112F01DB112000E06A
:10124000781CCDE9000106A90EA8FFF7DDFCDDE959
:101250000F010E9A03910021009207F1010A0491F7
:101260004DE04FF000400097CDE9011006A90EA80F
:10127000FFF7CAFCDDE90F0203920E9B11990022D1
:10128000DDF80CA00093049211B9791C00EB010A5F
:10129000B7EB0A0004D4C0F1FF3007F1010A049053
:1012A000AAEB0700019044E0012F00DA012700219A
:1012B000112F01DD112000E03846CDE9000106A91B
:1012C0000EA8FFF7A1FCDDE90F010E9A03910021A2
:1012D00004910092BA4621070CD40399514500DAD3
:1012E0008A46BAF1010F05DD009AAAF10101515CAD
:1012F000302908D0B84202DA10F1040F06DA0121D1
:10130000CDE9011015E0AAF10101E9E7002805DCAB
:10131000049901440491AAEB000102E0411C5145EB
:1013200000DD8A460499401A401C01904FF00040AD
:101330000290200704D40198504501DBCDF80480C9
:1013400000208DF84F0002980DF14F07B0F1004FCB
:1013500025D02B200E9002984FF0020800280CDABE
:10136000404202902D200E9007E00A210298FEF7DD
:101370004BFF3031029007F8011DB8F10001A8F1D0
:101380000108F2DC02980028EFD1791E0E9808704F
:10139000307800F0200040F0450007F8020D12A858
:1013A000C01B00F107081498007800B1012000EB81
:1013B0000A01019801EBE07105984144401A401E72
:1013C0000590E00306D45B462146179A059800F085
:1013D0005DF805441498007818B15A46179990475B
:1013E0006D1CE00324D55B462146179A059800F052
:1013F0004DF805441CE00498002807DBDDE90301F3
:10140000884203DD0098405C179901E0179930206D
:101410005A469047049805F10105401C0490019834
:10142000401E019004D12E205A46179990476D1CFA
:10143000BAF10001AAF1010ADDDC05E017F8010BA1
:101440005A46179990476D1CB8F10001A8F10108A0
:10145000F4DC5B462146179A0598ABE62D000000A8
:101460002B000000200000002DE9F041044600257B
:101470001E461746880404D405E039462020B047AC
:101480006D1C641EF9D52846BDE8F0812DE9F041B8
:10149000044600251E469046C80301D5302700E0CB
:1014A0002027880404D505E041463846B0476D1C26
:1014B000641EF9D52846BDE8F0810A68531C0B600C
:1014C00010707047622E204D6F64616C69746127E3
:1014D00020547572626F2046343133202831303009
:1014E000204D487A290A0D00312E204D6F6469661F
:1014F000696361204672657175656E7A6120283175
:10150000362F313030204D487A290A0D00612E20C7
:101510004D6F64616C69746127204C6F7720506F48
:1015200077657220283136204D487A290A0D000A45
:101530000D0A0D2A2A2053544D33324634313320BC
:10154000424F4F54205355434345535346554C2027
:101550002A2A0A0D000A0D2D2D2D20463431332064
:1015600044415348424F415244202D2D2D0A0D0035
:101570000A0D2D2D2D2053454C455A494F4E4520DF
:10158000504552464F524D414E4345202D2D2D0A78
:101590000D000A0D5B494E464F5D204769612720CB
:1015A000616C6C61206D617373696D612076656C2F
:1015B0006F63697461272E0A0D000A0D5B5359533E
:1015C0005D205370696E746120504C4C2061203155
:1015D0003030204D487A202833575320466C6173B1
:1015E00068292E2E2E0A0D000A0D5B434D445D2006
:1015F000436F6E6669677572617A696F6E652043C5
:101600006C6F636B2E2E2E0A0D000A0D5B5359531F
:101610005D20526964757A696F6E6520636C6F63D3
:101620006B2061203136204D487A2E2E2E0A0D0077
:101630000A0D5B4552525D205363656C74612065F1
:1016400072726174612E0A0D000A0D5B4552525D83
:1016500020436F6D616E646F206E6F6E2076616CDB
:1016600069646F2E0A0D005B4F4B5D20436C6F6306
:101670006B207269646F74746F2E0A0D000A0D5B23
:10168000494E464F5D204769612720696E204C6FA7
:101690007720506F7765722E0A0D005B4F4B5D20EF
:1016A00053697374656D61206F70657261746976DA
:1016B0006F206120313030204D487A2E0A0D0033E2
:1016C0002E20546573742043414E2052580A0D0059
:1016D000322E20546573742043414E2054580A0D15
:1016E00000436C6F636B2061747475616C653A20A4
:1016F0002564204D487A0A0D00496E73657269733E
:10170000636920636F6D616E646F203E20005B46ED
:101710003431335D2053696D756C617A696F6E6524
:101720002054582043414E2E2E2E0A0D005B463485
:1017300031335D20496E206173636F6C746F204399
:10174000414E2E2E2E0A0D006817000800000020C2
:1017500008000000E80B00087017000808000020CF
:1017600068040000F80B00081000000000000000F2
:04000005080001D915
:00000001FF
